{
  "contractName": "MsgBoard",
  "abi": [
    {
      "inputs": [],
      "stateMutability": "nonpayable",
      "type": "constructor"
    },
    {
      "inputs": [
        {
          "internalType": "uint256",
          "name": "",
          "type": "uint256"
        }
      ],
      "name": "posts",
      "outputs": [
        {
          "internalType": "address",
          "name": "ethaddress",
          "type": "address"
        },
        {
          "internalType": "string",
          "name": "msgValue",
          "type": "string"
        },
        {
          "internalType": "bool",
          "name": "userType",
          "type": "bool"
        }
      ],
      "stateMutability": "view",
      "type": "function"
    },
    {
      "inputs": [
        {
          "internalType": "address",
          "name": "",
          "type": "address"
        }
      ],
      "name": "teachOrNot",
      "outputs": [
        {
          "internalType": "bool",
          "name": "",
          "type": "bool"
        }
      ],
      "stateMutability": "view",
      "type": "function"
    },
    {
      "inputs": [
        {
          "internalType": "address",
          "name": "ethaddress",
          "type": "address"
        },
        {
          "internalType": "string",
          "name": "msgValue",
          "type": "string"
        }
      ],
      "name": "newPost",
      "outputs": [],
      "stateMutability": "nonpayable",
      "type": "function"
    },
    {
      "inputs": [],
      "name": "getCount",
      "outputs": [
        {
          "internalType": "uint256",
          "name": "",
          "type": "uint256"
        }
      ],
      "stateMutability": "view",
      "type": "function"
    },
    {
      "inputs": [
        {
          "internalType": "address",
          "name": "techAddress",
          "type": "address"
        }
      ],
      "name": "addTeacher",
      "outputs": [],
      "stateMutability": "nonpayable",
      "type": "function"
    }
  ],
  "bytecode": "0x608060405234801561001057600080fd5b5060016000803373ffffffffffffffffffffffffffffffffffffffff1673ffffffffffffffffffffffffffffffffffffffff16815260200190815260200160002060006101000a81548160ff0219169083151502179055506109a5806100776000396000f3fe608060405234801561001057600080fd5b50600436106100575760003560e01c80630b1e7f831461005c5780633bc6e3091461008e5780633d374ac8146100aa5780635caadf0f146100c6578063a87d942c146100f6575b600080fd5b61007660048036038101906100719190610604565b610114565b604051610085939291906106b6565b60405180910390f35b6100a860048036038101906100a39190610587565b610203565b005b6100c460048036038101906100bf91906105b0565b6102f2565b005b6100e060048036038101906100db9190610587565b610425565b6040516100ed91906106f4565b60405180910390f35b6100fe610445565b60405161010b919061072f565b60405180910390f35b6001818154811061012457600080fd5b90600052602060002090600302016000915090508060000160009054906101000a900473ffffffffffffffffffffffffffffffffffffffff169080600101805461016d90610846565b80601f016020809104026020016040519081016040528092919081815260200182805461019990610846565b80156101e65780601f106101bb576101008083540402835291602001916101e6565b820191906000526020600020905b8154815290600101906020018083116101c957829003601f168201915b5050505050908060020160009054906101000a900460ff16905083565b60016000803373ffffffffffffffffffffffffffffffffffffffff1673ffffffffffffffffffffffffffffffffffffffff16815260200190815260200160002060006101000a81548160ff0219169083151502179055610298576040517f08c379a000000000000000000000000000000000000000000000000000000000815260040161028f9061070f565b60405180910390fd5b60016000808373ffffffffffffffffffffffffffffffffffffffff1673ffffffffffffffffffffffffffffffffffffffff16815260200190815260200160002060006101000a81548160ff02191690831515021790555050565b600160405180606001604052808473ffffffffffffffffffffffffffffffffffffffff1681526020018381526020016000808673ffffffffffffffffffffffffffffffffffffffff1673ffffffffffffffffffffffffffffffffffffffff16815260200190815260200160002060009054906101000a900460ff161515815250908060018154018082558091505060019003906000526020600020906003020160009091909190915060008201518160000160006101000a81548173ffffffffffffffffffffffffffffffffffffffff021916908373ffffffffffffffffffffffffffffffffffffffff16021790555060208201518160010190805190602001906103fe929190610452565b5060408201518160020160006101000a81548160ff02191690831515021790555050505050565b60006020528060005260406000206000915054906101000a900460ff1681565b6000600180549050905090565b82805461045e90610846565b90600052602060002090601f01602090048101928261048057600085556104c7565b82601f1061049957805160ff19168380011785556104c7565b828001600101855582156104c7579182015b828111156104c65782518255916020019190600101906104ab565b5b5090506104d491906104d8565b5090565b5b808211156104f15760008160009055506001016104d9565b5090565b60006105086105038461076f565b61074a565b90508281526020810184848401111561052057600080fd5b61052b848285610804565b509392505050565b60008135905061054281610941565b92915050565b600082601f83011261055957600080fd5b81356105698482602086016104f5565b91505092915050565b60008135905061058181610958565b92915050565b60006020828403121561059957600080fd5b60006105a784828501610533565b91505092915050565b600080604083850312156105c357600080fd5b60006105d185828601610533565b925050602083013567ffffffffffffffff8111156105ee57600080fd5b6105fa85828601610548565b9150509250929050565b60006020828403121561061657600080fd5b600061062484828501610572565b91505092915050565b610636816107bc565b82525050565b610645816107ce565b82525050565b6000610656826107a0565b61066081856107ab565b9350610670818560208601610813565b61067981610907565b840191505092915050565b6000610691600e836107ab565b915061069c82610918565b602082019050919050565b6106b0816107fa565b82525050565b60006060820190506106cb600083018661062d565b81810360208301526106dd818561064b565b90506106ec604083018461063c565b949350505050565b6000602082019050610709600083018461063c565b92915050565b6000602082019050818103600083015261072881610684565b9050919050565b600060208201905061074460008301846106a7565b92915050565b6000610754610765565b90506107608282610878565b919050565b6000604051905090565b600067ffffffffffffffff82111561078a576107896108d8565b5b61079382610907565b9050602081019050919050565b600081519050919050565b600082825260208201905092915050565b60006107c7826107da565b9050919050565b60008115159050919050565b600073ffffffffffffffffffffffffffffffffffffffff82169050919050565b6000819050919050565b82818337600083830152505050565b60005b83811015610831578082015181840152602081019050610816565b83811115610840576000848401525b50505050565b6000600282049050600182168061085e57607f821691505b60208210811415610872576108716108a9565b5b50919050565b61088182610907565b810181811067ffffffffffffffff821117156108a05761089f6108d8565b5b80604052505050565b7f4e487b7100000000000000000000000000000000000000000000000000000000600052602260045260246000fd5b7f4e487b7100000000000000000000000000000000000000000000000000000000600052604160045260246000fd5b6000601f19601f8301169050919050565b7f4e6f7420417574686f72697a6564000000000000000000000000000000000000600082015250565b61094a816107bc565b811461095557600080fd5b50565b610961816107fa565b811461096c57600080fd5b5056fea2646970667358221220039334e8c2f813bd6053f9940dea0fbd88dc6479e64cf531984e1b6cc0cd5ffe64736f6c63430008010033",
  "immutableReferences": {},
  "source": "// SPDX-License-Identifier: GPL-3.0\r\npragma solidity ^0.8.1;\r\n\r\ncontract MsgBoard {\r\n    \r\n    struct post {\r\n        address ethaddress;\r\n        string msgValue;\r\n        bool userType;\r\n    }\r\n    \r\n    modifier onlyTech() {\r\n        require(teachOrNot[msg.sender] = true, \"Not Authorized\");\r\n        _;\r\n    }\r\n    \r\n    mapping(address => bool) public teachOrNot;\r\n    \r\n    constructor() {\r\n        teachOrNot[msg.sender] = true;\r\n    }\r\n    \r\n    post[] public posts;\r\n    \r\n    function newPost(address ethaddress, string memory msgValue) public {\r\n        posts.push(post(ethaddress, msgValue, teachOrNot[ethaddress]));\r\n    }\r\n    \r\n    function getCount() view public returns(uint) {\r\n        return posts.length;\r\n    }\r\n    \r\n    function addTeacher(address techAddress) onlyTech public {\r\n        teachOrNot[techAddress] = true;\r\n    }\r\n}",
  "sourcePath": "E:/eth-msg-board/contract/contracts/MsgBoard.sol",
  "compiler": {
    "name": "solc",
    "version": "0.8.1+commit.df193b15.Emscripten.clang"
  },
  "schemaVersion": "3.4.1",
  "updatedAt": "2021-07-09T11:06:59.946Z",
  "devdoc": {
    "kind": "dev",
    "methods": {},
    "version": 1
  },
  "userdoc": {
    "kind": "user",
    "methods": {},
    "version": 1
  }
}