{
  "contractName": "MsgBoard",
  "abi": [
    {
      "inputs": [
        {
          "internalType": "uint256",
          "name": "",
          "type": "uint256"
        }
      ],
      "name": "posts",
      "outputs": [
        {
          "internalType": "address",
          "name": "ethaddress",
          "type": "address"
        },
        {
          "internalType": "string",
          "name": "msgValue",
          "type": "string"
        },
        {
          "internalType": "bool",
          "name": "userType",
          "type": "bool"
        }
      ],
      "stateMutability": "view",
      "type": "function",
      "constant": true
    },
    {
      "inputs": [
        {
          "internalType": "address",
          "name": "ethaddress",
          "type": "address"
        },
        {
          "internalType": "string",
          "name": "msgValue",
          "type": "string"
        }
      ],
      "name": "newPost",
      "outputs": [],
      "stateMutability": "nonpayable",
      "type": "function"
    },
    {
      "inputs": [],
      "name": "getCount",
      "outputs": [
        {
          "internalType": "uint256",
          "name": "",
          "type": "uint256"
        }
      ],
      "stateMutability": "view",
      "type": "function",
      "constant": true
    }
  ],
  "bytecode": "0x608060405234801561001057600080fd5b50610784806100206000396000f3fe608060405234801561001057600080fd5b50600436106100415760003560e01c80630b1e7f83146100465780633d374ac814610078578063a87d942c14610094575b600080fd5b610060600480360381019061005b919061046a565b6100b2565b60405161006f939291906104f9565b60405180910390f35b610092600480360381019061008d9190610416565b6101a1565b005b61009c6102d4565b6040516100a99190610537565b60405180910390f35b600181815481106100c257600080fd5b90600052602060002090600302016000915090508060000160009054906101000a900473ffffffffffffffffffffffffffffffffffffffff169080600101805461010b9061064e565b80601f01602080910402602001604051908101604052809291908181526020018280546101379061064e565b80156101845780601f1061015957610100808354040283529160200191610184565b820191906000526020600020905b81548152906001019060200180831161016757829003601f168201915b5050505050908060020160009054906101000a900460ff16905083565b600160405180606001604052808473ffffffffffffffffffffffffffffffffffffffff1681526020018381526020016000808673ffffffffffffffffffffffffffffffffffffffff1673ffffffffffffffffffffffffffffffffffffffff16815260200190815260200160002060009054906101000a900460ff161515815250908060018154018082558091505060019003906000526020600020906003020160009091909190915060008201518160000160006101000a81548173ffffffffffffffffffffffffffffffffffffffff021916908373ffffffffffffffffffffffffffffffffffffffff16021790555060208201518160010190805190602001906102ad9291906102e1565b5060408201518160020160006101000a81548160ff02191690831515021790555050505050565b6000600180549050905090565b8280546102ed9061064e565b90600052602060002090601f01602090048101928261030f5760008555610356565b82601f1061032857805160ff1916838001178555610356565b82800160010185558215610356579182015b8281111561035557825182559160200191906001019061033a565b5b5090506103639190610367565b5090565b5b80821115610380576000816000905550600101610368565b5090565b600061039761039284610577565b610552565b9050828152602081018484840111156103af57600080fd5b6103ba84828561060c565b509392505050565b6000813590506103d181610720565b92915050565b600082601f8301126103e857600080fd5b81356103f8848260208601610384565b91505092915050565b60008135905061041081610737565b92915050565b6000806040838503121561042957600080fd5b6000610437858286016103c2565b925050602083013567ffffffffffffffff81111561045457600080fd5b610460858286016103d7565b9150509250929050565b60006020828403121561047c57600080fd5b600061048a84828501610401565b91505092915050565b61049c816105c4565b82525050565b6104ab816105d6565b82525050565b60006104bc826105a8565b6104c681856105b3565b93506104d681856020860161061b565b6104df8161070f565b840191505092915050565b6104f381610602565b82525050565b600060608201905061050e6000830186610493565b818103602083015261052081856104b1565b905061052f60408301846104a2565b949350505050565b600060208201905061054c60008301846104ea565b92915050565b600061055c61056d565b90506105688282610680565b919050565b6000604051905090565b600067ffffffffffffffff821115610592576105916106e0565b5b61059b8261070f565b9050602081019050919050565b600081519050919050565b600082825260208201905092915050565b60006105cf826105e2565b9050919050565b60008115159050919050565b600073ffffffffffffffffffffffffffffffffffffffff82169050919050565b6000819050919050565b82818337600083830152505050565b60005b8381101561063957808201518184015260208101905061061e565b83811115610648576000848401525b50505050565b6000600282049050600182168061066657607f821691505b6020821081141561067a576106796106b1565b5b50919050565b6106898261070f565b810181811067ffffffffffffffff821117156106a8576106a76106e0565b5b80604052505050565b7f4e487b7100000000000000000000000000000000000000000000000000000000600052602260045260246000fd5b7f4e487b7100000000000000000000000000000000000000000000000000000000600052604160045260246000fd5b6000601f19601f8301169050919050565b610729816105c4565b811461073457600080fd5b50565b61074081610602565b811461074b57600080fd5b5056fea2646970667358221220dc6bf433b3106660dab0bf9d45b398919c0ef801ada59e3b67341994f5dcedd864736f6c63430008010033",
  "immutableReferences": {},
  "source": "// SPDX-License-Identifier: GPL-3.0\r\npragma solidity ^0.8.1;\r\n\r\ncontract MsgBoard {\r\n    \r\n    struct post {\r\n        address ethaddress;\r\n        string msgValue;\r\n        bool userType;\r\n    }\r\n    \r\n    mapping(address => bool) teachOrNot;\r\n    \r\n    post[] public posts;\r\n    \r\n    function newPost(address ethaddress, string memory msgValue) public {\r\n        posts.push(post(ethaddress, msgValue, teachOrNot[ethaddress]));\r\n    }\r\n    \r\n    function getCount() view public returns(uint) {\r\n        return posts.length;\r\n    }\r\n}",
  "sourcePath": "E:/eth-msg-board/contract/contracts/MsgBoard.sol",
  "compiler": {
    "name": "solc",
    "version": "0.8.1+commit.df193b15.Emscripten.clang"
  },
  "schemaVersion": "3.4.1",
  "updatedAt": "2021-07-07T17:47:06.976Z",
  "networkType": "ethereum",
  "devdoc": {
    "kind": "dev",
    "methods": {},
    "version": 1
  },
  "userdoc": {
    "kind": "user",
    "methods": {},
    "version": 1
  }
}