{
  "contractName": "MsgBoard",
  "abi": [
    {
      "inputs": [],
      "stateMutability": "nonpayable",
      "type": "constructor"
    },
    {
      "inputs": [
        {
          "internalType": "address",
          "name": "techAddress",
          "type": "address"
        }
      ],
      "name": "addTeacher",
      "outputs": [],
      "stateMutability": "nonpayable",
      "type": "function"
    },
    {
      "inputs": [],
      "name": "getCount",
      "outputs": [
        {
          "internalType": "uint256",
          "name": "",
          "type": "uint256"
        }
      ],
      "stateMutability": "view",
      "type": "function"
    },
    {
      "inputs": [
        {
          "internalType": "address",
          "name": "ethaddress",
          "type": "address"
        },
        {
          "internalType": "string",
          "name": "msgValue",
          "type": "string"
        }
      ],
      "name": "newPost",
      "outputs": [],
      "stateMutability": "nonpayable",
      "type": "function"
    },
    {
      "inputs": [
        {
          "internalType": "uint256",
          "name": "",
          "type": "uint256"
        }
      ],
      "name": "posts",
      "outputs": [
        {
          "internalType": "address",
          "name": "ethaddress",
          "type": "address"
        },
        {
          "internalType": "string",
          "name": "msgValue",
          "type": "string"
        },
        {
          "internalType": "bool",
          "name": "userType",
          "type": "bool"
        }
      ],
      "stateMutability": "view",
      "type": "function"
    },
    {
      "inputs": [
        {
          "internalType": "address",
          "name": "",
          "type": "address"
        }
      ],
      "name": "teachOrNot",
      "outputs": [
        {
          "internalType": "bool",
          "name": "",
          "type": "bool"
        }
      ],
      "stateMutability": "view",
      "type": "function"
    }
  ],
  "bytecode": "0x608060405234801561001057600080fd5b5060016000803373ffffffffffffffffffffffffffffffffffffffff1673ffffffffffffffffffffffffffffffffffffffff16815260200190815260200160002060006101000a81548160ff0219169083151502179055506108a4806100776000396000f3fe608060405234801561001057600080fd5b50600436106100575760003560e01c80630b1e7f831461005c5780633bc6e3091461008e5780633d374ac8146100aa5780635caadf0f146100c6578063a87d942c146100f6575b600080fd5b6100766004803603810190610071919061056f565b610114565b604051610085939291906105fe565b60405180910390f35b6100a860048036038101906100a391906104f2565b610203565b005b6100c460048036038101906100bf919061051b565b61025d565b005b6100e060048036038101906100db91906104f2565b610390565b6040516100ed919061063c565b60405180910390f35b6100fe6103b0565b60405161010b9190610657565b60405180910390f35b6001818154811061012457600080fd5b90600052602060002090600302016000915090508060000160009054906101000a900473ffffffffffffffffffffffffffffffffffffffff169080600101805461016d9061076e565b80601f01602080910402602001604051908101604052809291908181526020018280546101999061076e565b80156101e65780601f106101bb576101008083540402835291602001916101e6565b820191906000526020600020905b8154815290600101906020018083116101c957829003601f168201915b5050505050908060020160009054906101000a900460ff16905083565b60016000808373ffffffffffffffffffffffffffffffffffffffff1673ffffffffffffffffffffffffffffffffffffffff16815260200190815260200160002060006101000a81548160ff02191690831515021790555050565b600160405180606001604052808473ffffffffffffffffffffffffffffffffffffffff1681526020018381526020016000808673ffffffffffffffffffffffffffffffffffffffff1673ffffffffffffffffffffffffffffffffffffffff16815260200190815260200160002060009054906101000a900460ff161515815250908060018154018082558091505060019003906000526020600020906003020160009091909190915060008201518160000160006101000a81548173ffffffffffffffffffffffffffffffffffffffff021916908373ffffffffffffffffffffffffffffffffffffffff16021790555060208201518160010190805190602001906103699291906103bd565b5060408201518160020160006101000a81548160ff02191690831515021790555050505050565b60006020528060005260406000206000915054906101000a900460ff1681565b6000600180549050905090565b8280546103c99061076e565b90600052602060002090601f0160209004810192826103eb5760008555610432565b82601f1061040457805160ff1916838001178555610432565b82800160010185558215610432579182015b82811115610431578251825591602001919060010190610416565b5b50905061043f9190610443565b5090565b5b8082111561045c576000816000905550600101610444565b5090565b600061047361046e84610697565b610672565b90508281526020810184848401111561048b57600080fd5b61049684828561072c565b509392505050565b6000813590506104ad81610840565b92915050565b600082601f8301126104c457600080fd5b81356104d4848260208601610460565b91505092915050565b6000813590506104ec81610857565b92915050565b60006020828403121561050457600080fd5b60006105128482850161049e565b91505092915050565b6000806040838503121561052e57600080fd5b600061053c8582860161049e565b925050602083013567ffffffffffffffff81111561055957600080fd5b610565858286016104b3565b9150509250929050565b60006020828403121561058157600080fd5b600061058f848285016104dd565b91505092915050565b6105a1816106e4565b82525050565b6105b0816106f6565b82525050565b60006105c1826106c8565b6105cb81856106d3565b93506105db81856020860161073b565b6105e48161082f565b840191505092915050565b6105f881610722565b82525050565b60006060820190506106136000830186610598565b818103602083015261062581856105b6565b905061063460408301846105a7565b949350505050565b600060208201905061065160008301846105a7565b92915050565b600060208201905061066c60008301846105ef565b92915050565b600061067c61068d565b905061068882826107a0565b919050565b6000604051905090565b600067ffffffffffffffff8211156106b2576106b1610800565b5b6106bb8261082f565b9050602081019050919050565b600081519050919050565b600082825260208201905092915050565b60006106ef82610702565b9050919050565b60008115159050919050565b600073ffffffffffffffffffffffffffffffffffffffff82169050919050565b6000819050919050565b82818337600083830152505050565b60005b8381101561075957808201518184015260208101905061073e565b83811115610768576000848401525b50505050565b6000600282049050600182168061078657607f821691505b6020821081141561079a576107996107d1565b5b50919050565b6107a98261082f565b810181811067ffffffffffffffff821117156107c8576107c7610800565b5b80604052505050565b7f4e487b7100000000000000000000000000000000000000000000000000000000600052602260045260246000fd5b7f4e487b7100000000000000000000000000000000000000000000000000000000600052604160045260246000fd5b6000601f19601f8301169050919050565b610849816106e4565b811461085457600080fd5b50565b61086081610722565b811461086b57600080fd5b5056fea2646970667358221220bc3c715c492d7951f63a2892b0043b3dc784854916ea7735808bcb590a35efb664736f6c63430008010033",
  "immutableReferences": {},
  "source": "// SPDX-License-Identifier: GPL-3.0\r\npragma solidity ^0.8.1;\r\n\r\ncontract MsgBoard {\r\n    \r\n    struct post {\r\n        address ethaddress;\r\n        string msgValue;\r\n        bool userType;\r\n    }\r\n    \r\n    modifier onlyTech() {\r\n        require(teachOrNot[msg.sender] = true, \"Not Authorized\");\r\n        _;\r\n    }\r\n    \r\n    mapping(address => bool) public teachOrNot;\r\n    \r\n    constructor() {\r\n        teachOrNot[msg.sender] = true;\r\n    }\r\n    \r\n    post[] public posts;\r\n    \r\n    function newPost(address ethaddress, string memory msgValue) public {\r\n        posts.push(post(ethaddress, msgValue, teachOrNot[ethaddress]));\r\n    }\r\n    \r\n    function getCount() view public returns(uint) {\r\n        return posts.length;\r\n    }\r\n    \r\n    function addTeacher(address techAddress) public {\r\n        teachOrNot[techAddress] = true;\r\n    }\r\n}",
  "sourcePath": "E:/eth-msg-board/contract/contracts/MsgBoard.sol",
  "compiler": {
    "name": "solc",
    "version": "0.8.1+commit.df193b15.Emscripten.clang"
  },
  "schemaVersion": "3.4.1",
  "updatedAt": "2021-07-07T20:32:09.534Z",
  "networkType": "ethereum",
  "devdoc": {
    "kind": "dev",
    "methods": {},
    "version": 1
  },
  "userdoc": {
    "kind": "user",
    "methods": {},
    "version": 1
  }
}